S01600004155544F4E4F4D4F55535F4341522E73726563BF
S11300000C942A000C943F000C943F000C943F0085
S11300100C943F000C943F000C943F000C943F0060
S11300200C943F000C943F000C943F000C943F0050
S11300300C943F000C943F000C943F000C943F0040
S11300400C943F000C943F000C943F000C943F0030
S11300500C943F0011241FBECFE5D8E0DEBFCDBF16
S113006010E0A0E6B0E0E0E5F8E002C005900D92F3
S1130070AE37B107D9F70E94D6020C9426040C942B
S1130080000041E060E083E00E94BF0041E061E0E5
S113009083E00E94BF0041E062E083E00E94BF0071
S11300A041E063E083E00E94BF00089541E060E026
S11300B083E00E94350140E061E083E00E94350165
S11300C041E062E083E00E94350140E063E083E0C8
S11300D00E943501089541E060E083E00E9435010B
S11300E040E061E083E00E94350140E062E083E0AB
S11300F00E94350140E063E083E00E9435010895E9
S113010040E060E083E00E94350140E061E083E08C
S11301100E94350140E062E083E00E94350141E045
S113012063E083E00E943501089540E060E083E0ED
S11301300E94350141E061E083E00E94350140E026
S113014062E083E00E94350141E063E083E00E94C5
S11301503501089540E060E083E00E94350140E00D
S113016061E083E00E94350140E062E083E00E94A8
S1130170350140E063E083E00E9435010895843056
S113018008F072C0683008F06FC0423008F06CC0EC
S1130190813001F130F08230B1F1833009F44CC088
S11301A00895413059F42AB381E090E002C0880FE9
S11301B0991F6A95E2F7822B8ABB08952AB381E0DE
S11301C090E002C0880F991F6A95E2F78095822318
S11301D08ABB0895413059F427B381E090E002C00E
S11301E0880F991F6A95E2F7822B87BB089527B37E
S11301F081E090E002C0880F991F6A95E2F780952C
S1130200822387BB0895413059F424B381E090E000
S113021002C0880F991F6A95E2F7822B84BB089568
S113022024B381E090E002C0880F991F6A95E2F739
S11302308095822384BB0895413059F421B381E031
S113024090E002C0880F991F6A95E2F7822B81BB68
S1130250089521B381E090E002C0880F991F6A9548
S1130260E2F78095822381BB0895843008F072C040
S1130270683008F06FC0423008F06CC0813001F182
S113028030F08230B1F1833009F44CC0089541302C
S113029059F42BB381E090E002C0880F991F6A954E
S11302A0E2F7822B8BBB08952BB381E090E002C070
S11302B0880F991F6A95E2F7809582238BBB089576
S11302C0413059F428B381E090E002C0880F991FAF
S11302D06A95E2F7822B88BB089528B381E090E009
S11302E002C0880F991F6A95E2F78095822388BB24
S11302F00895413059F425B381E090E002C0880F9D
S1130300991F6A95E2F7822B85BB089525B381E096
S113031090E002C0880F991F6A95E2F780958223C6
S113032085BB0895413059F422B381E090E002C0C6
S1130330880F991F6A95E2F7822B82BB089522B336
S113034081E090E002C0880F991F6A95E2F78095DA
S1130350822382BB0895CF93C82F80FF06C041E05B
S113036064E080E00E94350105C040E064E080E084
S11303700E943501C1FF06C041E065E080E00E94B3
S1130380350105C040E065E080E00E943501C2FF10
S113039006C041E066E080E00E94350105C040E00F
S11303A066E080E00E943501C3FF06C041E067E0DB
S11303B080E00E94350105C040E067E080E00E94D3
S11303C03501CF910895CF93C82F40E062E081E0DA
S11303D00E94350140E063E081E00E9435018C2FEA
S11303E082958F700E94AB0141E061E081E00E9440
S11303F035018FE99FE00197F1F700C0000040E06C
S113040061E081E00E9435018C2F0E94AB0141E044
S113041061E081E00E9435018FE99FE00197F1F7E7
S113042000C0000040E061E081E00E943501CF910E
S1130430089541E062E081E00E94BF0041E063E092
S113044081E00E94BF0041E061E081E00E94BF00C2
S113045041E064E080E00E94BF0041E065E080E0AC
S11304600E94BF0041E066E080E00E94BF0041E0DE
S113047067E080E00E94BF002FE785EB91E0215008
S113048080409040E1F700C0000040E062E081E07D
S11304900E94350140E063E081E00E94350182E082
S11304A00E94AB0141E061E081E00E9435018FE9E7
S11304B09FE00197F1F700C0000040E061E081E0B7
S11304C00E94350188E20E94E30190EF9A95F1F7CA
S11304D08CE00E94E30120EF2A95F1F781E00E946D
S11304E0E3018FE39FE10197F1F700C0000086E08C
S11304F00E94E3010895CF93C82F41E062E081E0B8
S11305000E94350140E063E081E00E9435018C2FB8
S113051082958F700E94AB0141E061E081E00E940E
S113052035018FE99FE00197F1F700C0000040E03A
S113053061E081E00E9435018C2F0E94AB0141E013
S113054061E081E00E9435018FE99FE00197F1F7B6
S113055000C0000040E061E081E00E943501CF91DD
S113056008950F931F93CF938C01C0E003C00E94A2
S11305707B02CF5FF801EC0FF11D80818111F7CF71
S1130580CF911F910F910895813039F4603168F44F
S113059080E8860F0E94E3010895823031F46031CF
S11305A020F480EC860F0E94E301089541E067E0A7
S11305B083E00E94BF0041E062E080E00E94BF004F
S11305C00E9419020E9483030E9441000E949F031B
S11305D08FE493EC0197F1F700C0000060E081E044
S11305E00E94C40280E690E00E94B1020E94C1030E
S11305F0459788F00E945600E7EAF1E63197F1F753
S113060000C0000065E081E00E94C40285E690E03D
S11306100E94B102EBCF0E94AA0087EA91E60197FB
S1130620F1F700C0000065E081E00E94C4028AE6A0
S113063090E00E94B1020E948E03EFE4F3EC319744
S1130640F1F700C000000E94C103EC0187EA91E6C3
S11306500197F1F700C000000E94B003EFE4F3EC4F
S11306603197F1F700C000000E94C103E7EAF1E608
S11306703197F1F700C000008C179D0738F50E94F0
S1130680950087EA91E60197F1F700C0000065E064
S113069081E00E94C4028FE690E00E94B102E7EA82
S11306A0F1E63197F1F700C000000E946B0087EA81
S11306B091E60197F1F700C0000065E081E00E9437
S11306C0C40284E790E00E94B10290CFC817D90712
S11306D008F08CCF0E949500E7EAF1E63197F1F734
S11306E000C000000E94800087EA91E60197F1F7BC
S11306F000C0000065E081E00E94C40289E790E048
S11307000E94B10273CF41E060E082E00E94BF002A
S113071040E060E082E00E943501089541E060E03D
S113072082E00E9435018FEC97E00197F1F700C059
S1130730000040E060E082E00E943501089541E05D
S113074060E082E00E94350187EB9BE00197F1F7BE
S113075000C0000040E060E082E00E94350108959E
S113076041E060E082E00E9435018FE99FE001975B
S1130770F1F700C0000040E060E082E00E94350133
S113078008951FBC80E288BF41E067E083E00E94D7
S1130790350180E18A95F1F700C040E067E083E02D
S11307A00E94350181EC8EBD08B605FEFDCF86B5ED
S11307B097B520E228BF21E82EBD08B605FEFDCF7F
S11307C026B537B540E248BF1DBC1CBC1EBC281B67
S11307D0390BA8E2B7E80E94170420E834E84EE198
S11307E050E00E94F503C9010895A1E21A2EAA1B44
S11307F0BB1BFD010DC0AA1FBB1FEE1FFF1FA217CD
S1130800B307E407F50720F0A21BB30BE40BF50BC9
S1130810661F771F881F991F1A9469F76095709552
S1130820809590959B01AC01BD01CF010895A29FD5
S1130830B001B39FC001A39F700D811D1124911DB0
S1130840B29F700D811D1124911D0895F894FFCF5E
S11308504469723A00464F52570053544F50004275
S111086041434B0052696768004C65667400A2
S9030000FC
